{
  "contractName": "MetaCoin",
  "abi": [
    {
      "inputs": [
        {
          "internalType": "uint256",
          "name": "_initialSupply",
          "type": "uint256"
        }
      ],
      "stateMutability": "nonpayable",
      "type": "constructor"
    },
    {
      "inputs": [
        {
          "internalType": "address",
          "name": "spender",
          "type": "address"
        },
        {
          "internalType": "uint256",
          "name": "allowance",
          "type": "uint256"
        },
        {
          "internalType": "uint256",
          "name": "needed",
          "type": "uint256"
        }
      ],
      "name": "ERC20InsufficientAllowance",
      "type": "error"
    },
    {
      "inputs": [
        {
          "internalType": "address",
          "name": "sender",
          "type": "address"
        },
        {
          "internalType": "uint256",
          "name": "balance",
          "type": "uint256"
        },
        {
          "internalType": "uint256",
          "name": "needed",
          "type": "uint256"
        }
      ],
      "name": "ERC20InsufficientBalance",
      "type": "error"
    },
    {
      "inputs": [
        {
          "internalType": "address",
          "name": "approver",
          "type": "address"
        }
      ],
      "name": "ERC20InvalidApprover",
      "type": "error"
    },
    {
      "inputs": [
        {
          "internalType": "address",
          "name": "receiver",
          "type": "address"
        }
      ],
      "name": "ERC20InvalidReceiver",
      "type": "error"
    },
    {
      "inputs": [
        {
          "internalType": "address",
          "name": "sender",
          "type": "address"
        }
      ],
      "name": "ERC20InvalidSender",
      "type": "error"
    },
    {
      "inputs": [
        {
          "internalType": "address",
          "name": "spender",
          "type": "address"
        }
      ],
      "name": "ERC20InvalidSpender",
      "type": "error"
    },
    {
      "anonymous": false,
      "inputs": [
        {
          "indexed": true,
          "internalType": "address",
          "name": "owner",
          "type": "address"
        },
        {
          "indexed": true,
          "internalType": "address",
          "name": "spender",
          "type": "address"
        },
        {
          "indexed": false,
          "internalType": "uint256",
          "name": "value",
          "type": "uint256"
        }
      ],
      "name": "Approval",
      "type": "event"
    },
    {
      "anonymous": false,
      "inputs": [
        {
          "indexed": true,
          "internalType": "address",
          "name": "from",
          "type": "address"
        },
        {
          "indexed": true,
          "internalType": "address",
          "name": "to",
          "type": "address"
        },
        {
          "indexed": false,
          "internalType": "uint256",
          "name": "value",
          "type": "uint256"
        }
      ],
      "name": "Transfer",
      "type": "event"
    },
    {
      "inputs": [
        {
          "internalType": "address",
          "name": "owner",
          "type": "address"
        },
        {
          "internalType": "address",
          "name": "spender",
          "type": "address"
        }
      ],
      "name": "allowance",
      "outputs": [
        {
          "internalType": "uint256",
          "name": "",
          "type": "uint256"
        }
      ],
      "stateMutability": "view",
      "type": "function"
    },
    {
      "inputs": [
        {
          "internalType": "address",
          "name": "spender",
          "type": "address"
        },
        {
          "internalType": "uint256",
          "name": "value",
          "type": "uint256"
        }
      ],
      "name": "approve",
      "outputs": [
        {
          "internalType": "bool",
          "name": "",
          "type": "bool"
        }
      ],
      "stateMutability": "nonpayable",
      "type": "function"
    },
    {
      "inputs": [
        {
          "internalType": "address",
          "name": "account",
          "type": "address"
        }
      ],
      "name": "balanceOf",
      "outputs": [
        {
          "internalType": "uint256",
          "name": "",
          "type": "uint256"
        }
      ],
      "stateMutability": "view",
      "type": "function"
    },
    {
      "inputs": [],
      "name": "decimals",
      "outputs": [
        {
          "internalType": "uint8",
          "name": "",
          "type": "uint8"
        }
      ],
      "stateMutability": "view",
      "type": "function"
    },
    {
      "inputs": [
        {
          "internalType": "address",
          "name": "_account",
          "type": "address"
        }
      ],
      "name": "getConvertedBalance",
      "outputs": [
        {
          "internalType": "uint256",
          "name": "convertedBalance",
          "type": "uint256"
        }
      ],
      "stateMutability": "view",
      "type": "function"
    },
    {
      "inputs": [],
      "name": "getOwner",
      "outputs": [
        {
          "internalType": "address",
          "name": "ownerAddress",
          "type": "address"
        }
      ],
      "stateMutability": "view",
      "type": "function"
    },
    {
      "inputs": [
        {
          "internalType": "uint256",
          "name": "_unlockTime",
          "type": "uint256"
        }
      ],
      "name": "lock",
      "outputs": [],
      "stateMutability": "payable",
      "type": "function"
    },
    {
      "inputs": [
        {
          "internalType": "uint256",
          "name": "_initialSupply",
          "type": "uint256"
        }
      ],
      "name": "mint",
      "outputs": [],
      "stateMutability": "payable",
      "type": "function"
    },
    {
      "inputs": [],
      "name": "name",
      "outputs": [
        {
          "internalType": "string",
          "name": "",
          "type": "string"
        }
      ],
      "stateMutability": "view",
      "type": "function"
    },
    {
      "inputs": [],
      "name": "owner",
      "outputs": [
        {
          "internalType": "address",
          "name": "",
          "type": "address"
        }
      ],
      "stateMutability": "view",
      "type": "function"
    },
    {
      "inputs": [
        {
          "internalType": "address",
          "name": "_receiver",
          "type": "address"
        },
        {
          "internalType": "uint256",
          "name": "_amount",
          "type": "uint256"
        }
      ],
      "name": "sendCoin",
      "outputs": [
        {
          "internalType": "bool",
          "name": "success",
          "type": "bool"
        }
      ],
      "stateMutability": "nonpayable",
      "type": "function"
    },
    {
      "inputs": [],
      "name": "symbol",
      "outputs": [
        {
          "internalType": "string",
          "name": "",
          "type": "string"
        }
      ],
      "stateMutability": "view",
      "type": "function"
    },
    {
      "inputs": [],
      "name": "totalSupply",
      "outputs": [
        {
          "internalType": "uint256",
          "name": "",
          "type": "uint256"
        }
      ],
      "stateMutability": "view",
      "type": "function"
    },
    {
      "inputs": [
        {
          "internalType": "address",
          "name": "to",
          "type": "address"
        },
        {
          "internalType": "uint256",
          "name": "value",
          "type": "uint256"
        }
      ],
      "name": "transfer",
      "outputs": [
        {
          "internalType": "bool",
          "name": "",
          "type": "bool"
        }
      ],
      "stateMutability": "nonpayable",
      "type": "function"
    },
    {
      "inputs": [
        {
          "internalType": "address",
          "name": "from",
          "type": "address"
        },
        {
          "internalType": "address",
          "name": "to",
          "type": "address"
        },
        {
          "internalType": "uint256",
          "name": "value",
          "type": "uint256"
        }
      ],
      "name": "transferFrom",
      "outputs": [
        {
          "internalType": "bool",
          "name": "",
          "type": "bool"
        }
      ],
      "stateMutability": "nonpayable",
      "type": "function"
    },
    {
      "inputs": [],
      "name": "unlockTime",
      "outputs": [
        {
          "internalType": "uint256",
          "name": "",
          "type": "uint256"
        }
      ],
      "stateMutability": "view",
      "type": "function"
    },
    {
      "inputs": [
        {
          "internalType": "address",
          "name": "_to",
          "type": "address"
        }
      ],
      "name": "withdraw",
      "outputs": [],
      "stateMutability": "nonpayable",
      "type": "function"
    }
  ],
  "bytecode": "0x608060405234801562000010575f80fd5b50d380156200001d575f80fd5b50d280156200002a575f80fd5b50604051620021a4380380620021a4833981810160405281019062000050919062000425565b6040518060400160405280600a81526020017f54657468657220555344000000000000000000000000000000000000000000008152506040518060400160405280600481526020017f55534454000000000000000000000000000000000000000000000000000000008152508160039081620000cd9190620006b0565b508060049081620000df9190620006b0565b5050503360055f6101000a81548173ffffffffffffffffffffffffffffffffffffffff021916908373ffffffffffffffffffffffffffffffffffffffff1602179055506200013433826200013b60201b60201c565b50620008c0565b5f73ffffffffffffffffffffffffffffffffffffffff168273ffffffffffffffffffffffffffffffffffffffff1603620001ae575f6040517fec442f05000000000000000000000000000000000000000000000000000000008152600401620001a59190620007d7565b60405180910390fd5b620001c15f8383620001c560201b60201c565b5050565b5f73ffffffffffffffffffffffffffffffffffffffff168373ffffffffffffffffffffffffffffffffffffffff160362000219578060025f8282546200020c91906200081f565b92505081905550620002ea565b5f805f8573ffffffffffffffffffffffffffffffffffffffff1673ffffffffffffffffffffffffffffffffffffffff1681526020019081526020015f2054905081811015620002a5578381836040517fe450d38c0000000000000000000000000000000000000000000000000000000081526004016200029c939291906200086a565b60405180910390fd5b8181035f808673ffffffffffffffffffffffffffffffffffffffff1673ffffffffffffffffffffffffffffffffffffffff1681526020019081526020015f2081905550505b5f73ffffffffffffffffffffffffffffffffffffffff168273ffffffffffffffffffffffffffffffffffffffff160362000333578060025f82825403925050819055506200037d565b805f808473ffffffffffffffffffffffffffffffffffffffff1673ffffffffffffffffffffffffffffffffffffffff1681526020019081526020015f205f82825401925050819055505b8173ffffffffffffffffffffffffffffffffffffffff168373ffffffffffffffffffffffffffffffffffffffff167fddf252ad1be2c89b69c2b068fc378daa952ba7f163c4a11628f55a4df523b3ef83604051620003dc9190620008a5565b60405180910390a3505050565b5f80fd5b5f819050919050565b6200040181620003ed565b81146200040c575f80fd5b50565b5f815190506200041f81620003f6565b92915050565b5f602082840312156200043d576200043c620003e9565b5b5f6200044c848285016200040f565b91505092915050565b5f81519050919050565b7f4e487b71000000000000000000000000000000000000000000000000000000005f52604160045260245ffd5b7f4e487b71000000000000000000000000000000000000000000000000000000005f52602260045260245ffd5b5f6002820490506001821680620004d157607f821691505b602082108103620004e757620004e66200048c565b5b50919050565b5f819050815f5260205f209050919050565b5f6020601f8301049050919050565b5f82821b905092915050565b5f600883026200054b7fffffffffffffffffffffffffffffffffffffffffffffffffffffffffffffffff826200050e565b6200055786836200050e565b95508019841693508086168417925050509392505050565b5f819050919050565b5f62000598620005926200058c84620003ed565b6200056f565b620003ed565b9050919050565b5f819050919050565b620005b38362000578565b620005cb620005c2826200059f565b8484546200051a565b825550505050565b5f90565b620005e1620005d3565b620005ee818484620005a8565b505050565b5b818110156200061557620006095f82620005d7565b600181019050620005f4565b5050565b601f82111562000664576200062e81620004ed565b6200063984620004ff565b8101602085101562000649578190505b620006616200065885620004ff565b830182620005f3565b50505b505050565b5f82821c905092915050565b5f620006865f198460080262000669565b1980831691505092915050565b5f620006a0838362000675565b9150826002028217905092915050565b620006bb8262000455565b67ffffffffffffffff811115620006d757620006d66200045f565b5b620006e38254620004b9565b620006f082828562000619565b5f60209050601f83116001811462000726575f841562000711578287015190505b6200071d858262000693565b8655506200078c565b601f1984166200073686620004ed565b5f5b828110156200075f5784890151825560018201915060208501945060208101905062000738565b868310156200077f57848901516200077b601f89168262000675565b8355505b6001600288020188555050505b505050505050565b5f73ffffffffffffffffffffffffffffffffffffffff82169050919050565b5f620007bf8262000794565b9050919050565b620007d181620007b3565b82525050565b5f602082019050620007ec5f830184620007c6565b92915050565b7f4e487b71000000000000000000000000000000000000000000000000000000005f52601160045260245ffd5b5f6200082b82620003ed565b91506200083883620003ed565b9250828201905080821115620008535762000852620007f2565b5b92915050565b6200086481620003ed565b82525050565b5f6060820190506200087f5f830186620007c6565b6200088e602083018562000859565b6200089d604083018462000859565b949350505050565b5f602082019050620008ba5f83018462000859565b92915050565b6118d680620008ce5f395ff3fe6080604052600436106100fd575f3560e01c8063893d20e811610094578063a0712d6811610063578063a0712d681461045f578063a9059cbb1461047b578063dd467064146104cf578063dd62ed3e146104eb578063e671c8441461053f576100fd565b8063893d20e8146103455780638da5cb5b1461038757806390b98a11146103c957806395d89b411461041d576100fd565b8063251c1aa3116100d0578063251c1aa31461022d578063313ce5671461026f57806351cff8d9146102b157806370a08231146102f1576100fd565b806306fdde0314610101578063095ea7b31461014357806318160ddd1461019757806323b872dd146101d9575b5f80fd5b34801561010c575f80fd5b50d38015610118575f80fd5b50d28015610124575f80fd5b5061012d610593565b60405161013a919061127c565b60405180910390f35b34801561014e575f80fd5b50d3801561015a575f80fd5b50d28015610166575f80fd5b50610181600480360381019061017c9190611358565b610623565b60405161018e91906113b0565b60405180910390f35b3480156101a2575f80fd5b50d380156101ae575f80fd5b50d280156101ba575f80fd5b506101c3610645565b6040516101d091906113d8565b60405180910390f35b3480156101e4575f80fd5b50d380156101f0575f80fd5b50d280156101fc575f80fd5b50610217600480360381019061021291906113f1565b61064e565b60405161022491906113b0565b60405180910390f35b348015610238575f80fd5b50d38015610244575f80fd5b50d28015610250575f80fd5b5061025961067c565b60405161026691906113d8565b60405180910390f35b34801561027a575f80fd5b50d38015610286575f80fd5b50d28015610292575f80fd5b5061029b610682565b6040516102a8919061145c565b60405180910390f35b3480156102bc575f80fd5b50d380156102c8575f80fd5b50d280156102d4575f80fd5b506102ef60048036038101906102ea9190611475565b61068a565b005b3480156102fc575f80fd5b50d38015610308575f80fd5b50d28015610314575f80fd5b5061032f600480360381019061032a9190611475565b610813565b60405161033c91906113d8565b60405180910390f35b348015610350575f80fd5b50d3801561035c575f80fd5b50d28015610368575f80fd5b50610371610858565b60405161037e91906114af565b60405180910390f35b348015610392575f80fd5b50d3801561039e575f80fd5b50d280156103aa575f80fd5b506103b3610880565b6040516103c091906114af565b60405180910390f35b3480156103d4575f80fd5b50d380156103e0575f80fd5b50d280156103ec575f80fd5b5061040760048036038101906104029190611358565b6108a5565b60405161041491906113b0565b60405180910390f35b348015610428575f80fd5b50d38015610434575f80fd5b50d28015610440575f80fd5b506104496108bb565b604051610456919061127c565b60405180910390f35b610479600480360381019061047491906114c8565b61094b565b005b348015610486575f80fd5b50d38015610492575f80fd5b50d2801561049e575f80fd5b506104b960048036038101906104b49190611358565b6109e7565b6040516104c691906113b0565b60405180910390f35b6104e960048036038101906104e491906114c8565b610a09565b005b3480156104f6575f80fd5b50d38015610502575f80fd5b50d2801561050e575f80fd5b50610529600480360381019061052491906114f3565b610ae4565b60405161053691906113d8565b60405180910390f35b34801561054a575f80fd5b50d38015610556575f80fd5b50d28015610562575f80fd5b5061057d60048036038101906105789190611475565b610b66565b60405161058a91906113d8565b60405180910390f35b6060600380546105a29061155e565b80601f01602080910402602001604051908101604052809291908181526020018280546105ce9061155e565b80156106195780601f106105f057610100808354040283529160200191610619565b820191905f5260205f20905b8154815290600101906020018083116105fc57829003601f168201915b5050505050905090565b5f8061062d610bef565b905061063a818585610bf6565b600191505092915050565b5f600254905090565b5f80610658610bef565b9050610665858285610c08565b610670858585610c9b565b60019150509392505050565b60065481565b5f6012905090565b6006544210156106cf576040517f08c379a00000000000000000000000000000000000000000000000000000000081526004016106c6906115d8565b60405180910390fd5b60055f9054906101000a900473ffffffffffffffffffffffffffffffffffffffff1673ffffffffffffffffffffffffffffffffffffffff163373ffffffffffffffffffffffffffffffffffffffff161461075e576040517f08c379a000000000000000000000000000000000000000000000000000000000815260040161075590611640565b60405180910390fd5b5f73ffffffffffffffffffffffffffffffffffffffff168173ffffffffffffffffffffffffffffffffffffffff16036107cc576040517f08c379a00000000000000000000000000000000000000000000000000000000081526004016107c3906116a8565b60405180910390fd5b8073ffffffffffffffffffffffffffffffffffffffff166108fc4790811502906040515f60405180830381858888f1935050505015801561080f573d5f803e3d5ffd5b5050565b5f805f8373ffffffffffffffffffffffffffffffffffffffff1673ffffffffffffffffffffffffffffffffffffffff1681526020019081526020015f20549050919050565b5f60055f9054906101000a900473ffffffffffffffffffffffffffffffffffffffff16905090565b60055f9054906101000a900473ffffffffffffffffffffffffffffffffffffffff1681565b5f6108b1338484610c9b565b6001905092915050565b6060600480546108ca9061155e565b80601f01602080910402602001604051908101604052809291908181526020018280546108f69061155e565b80156109415780601f1061091857610100808354040283529160200191610941565b820191905f5260205f20905b81548152906001019060200180831161092457829003601f168201915b5050505050905090565b60055f9054906101000a900473ffffffffffffffffffffffffffffffffffffffff1673ffffffffffffffffffffffffffffffffffffffff163373ffffffffffffffffffffffffffffffffffffffff16146109da576040517f08c379a00000000000000000000000000000000000000000000000000000000081526004016109d190611640565b60405180910390fd5b6109e43382610d8b565b50565b5f806109f1610bef565b90506109fe818585610c9b565b600191505092915050565b804210610a4b576040517f08c379a0000000000000000000000000000000000000000000000000000000008152600401610a4290611736565b60405180910390fd5b60055f9054906101000a900473ffffffffffffffffffffffffffffffffffffffff1673ffffffffffffffffffffffffffffffffffffffff163373ffffffffffffffffffffffffffffffffffffffff1614610ada576040517f08c379a0000000000000000000000000000000000000000000000000000000008152600401610ad190611640565b60405180910390fd5b8060068190555050565b5f60015f8473ffffffffffffffffffffffffffffffffffffffff1673ffffffffffffffffffffffffffffffffffffffff1681526020019081526020015f205f8373ffffffffffffffffffffffffffffffffffffffff1673ffffffffffffffffffffffffffffffffffffffff1681526020019081526020015f2054905092915050565b5f73__ConvertLib____________________________6396e4ee3d610b8a84610813565b60026040518363ffffffff1660e01b8152600401610ba99291906117a5565b602060405180830381865af4158015610bc4573d5f803e3d5ffd5b505050506040513d601f19601f82011682018060405250810190610be891906117e0565b9050919050565b5f33905090565b610c038383836001610e0a565b505050565b5f610c138484610ae4565b90507fffffffffffffffffffffffffffffffffffffffffffffffffffffffffffffffff811015610c955781811015610c86578281836040517ffb8f41b2000000000000000000000000000000000000000000000000000000008152600401610c7d9392919061180b565b60405180910390fd5b610c9484848484035f610e0a565b5b50505050565b5f73ffffffffffffffffffffffffffffffffffffffff168373ffffffffffffffffffffffffffffffffffffffff1603610d0b575f6040517f96c6fd1e000000000000000000000000000000000000000000000000000000008152600401610d0291906114af565b60405180910390fd5b5f73ffffffffffffffffffffffffffffffffffffffff168273ffffffffffffffffffffffffffffffffffffffff1603610d7b575f6040517fec442f05000000000000000000000000000000000000000000000000000000008152600401610d7291906114af565b60405180910390fd5b610d86838383610fd9565b505050565b5f73ffffffffffffffffffffffffffffffffffffffff168273ffffffffffffffffffffffffffffffffffffffff1603610dfb575f6040517fec442f05000000000000000000000000000000000000000000000000000000008152600401610df291906114af565b60405180910390fd5b610e065f8383610fd9565b5050565b5f73ffffffffffffffffffffffffffffffffffffffff168473ffffffffffffffffffffffffffffffffffffffff1603610e7a575f6040517fe602df05000000000000000000000000000000000000000000000000000000008152600401610e7191906114af565b60405180910390fd5b5f73ffffffffffffffffffffffffffffffffffffffff168373ffffffffffffffffffffffffffffffffffffffff1603610eea575f6040517f94280d62000000000000000000000000000000000000000000000000000000008152600401610ee191906114af565b60405180910390fd5b8160015f8673ffffffffffffffffffffffffffffffffffffffff1673ffffffffffffffffffffffffffffffffffffffff1681526020019081526020015f205f8573ffffffffffffffffffffffffffffffffffffffff1673ffffffffffffffffffffffffffffffffffffffff1681526020019081526020015f20819055508015610fd3578273ffffffffffffffffffffffffffffffffffffffff168473ffffffffffffffffffffffffffffffffffffffff167f8c5be1e5ebec7d5bd14f71427d1e84f3dd0314c0f7b2291e5b200ac8c7c3b92584604051610fca91906113d8565b60405180910390a35b50505050565b5f73ffffffffffffffffffffffffffffffffffffffff168373ffffffffffffffffffffffffffffffffffffffff1603611029578060025f82825461101d919061186d565b925050819055506110f7565b5f805f8573ffffffffffffffffffffffffffffffffffffffff1673ffffffffffffffffffffffffffffffffffffffff1681526020019081526020015f20549050818110156110b2578381836040517fe450d38c0000000000000000000000000000000000000000000000000000000081526004016110a99392919061180b565b60405180910390fd5b8181035f808673ffffffffffffffffffffffffffffffffffffffff1673ffffffffffffffffffffffffffffffffffffffff1681526020019081526020015f2081905550505b5f73ffffffffffffffffffffffffffffffffffffffff168273ffffffffffffffffffffffffffffffffffffffff160361113e578060025f8282540392505081905550611188565b805f808473ffffffffffffffffffffffffffffffffffffffff1673ffffffffffffffffffffffffffffffffffffffff1681526020019081526020015f205f82825401925050819055505b8173ffffffffffffffffffffffffffffffffffffffff168373ffffffffffffffffffffffffffffffffffffffff167fddf252ad1be2c89b69c2b068fc378daa952ba7f163c4a11628f55a4df523b3ef836040516111e591906113d8565b60405180910390a3505050565b5f81519050919050565b5f82825260208201905092915050565b5f5b8381101561122957808201518184015260208101905061120e565b5f8484015250505050565b5f601f19601f8301169050919050565b5f61124e826111f2565b61125881856111fc565b935061126881856020860161120c565b61127181611234565b840191505092915050565b5f6020820190508181035f8301526112948184611244565b905092915050565b5f80fd5b5f74ffffffffffffffffffffffffffffffffffffffffff82169050919050565b6112c9816112a0565b81146112d3575f80fd5b50565b5f73ffffffffffffffffffffffffffffffffffffffff82169050919050565b5f6112ff826112d6565b9050919050565b5f81359050611314816112c0565b61131d816112f5565b905092915050565b5f819050919050565b61133781611325565b8114611341575f80fd5b50565b5f813590506113528161132e565b92915050565b5f806040838503121561136e5761136d61129c565b5b5f61137b85828601611306565b925050602061138c85828601611344565b9150509250929050565b5f8115159050919050565b6113aa81611396565b82525050565b5f6020820190506113c35f8301846113a1565b92915050565b6113d281611325565b82525050565b5f6020820190506113eb5f8301846113c9565b92915050565b5f805f606084860312156114085761140761129c565b5b5f61141586828701611306565b935050602061142686828701611306565b925050604061143786828701611344565b9150509250925092565b5f60ff82169050919050565b61145681611441565b82525050565b5f60208201905061146f5f83018461144d565b92915050565b5f6020828403121561148a5761148961129c565b5b5f61149784828501611306565b91505092915050565b6114a9816112f5565b82525050565b5f6020820190506114c25f8301846114a0565b92915050565b5f602082840312156114dd576114dc61129c565b5b5f6114ea84828501611344565b91505092915050565b5f80604083850312156115095761150861129c565b5b5f61151685828601611306565b925050602061152785828601611306565b9150509250929050565b7f4e487b71000000000000000000000000000000000000000000000000000000005f52602260045260245ffd5b5f600282049050600182168061157557607f821691505b60208210810361158857611587611531565b5b50919050565b7f596f752063616e277420776974686472617720796574000000000000000000005f82015250565b5f6115c26016836111fc565b91506115cd8261158e565b602082019050919050565b5f6020820190508181035f8301526115ef816115b6565b9050919050565b7f596f75206172656e277420746865206f776e65720000000000000000000000005f82015250565b5f61162a6014836111fc565b9150611635826115f6565b602082019050919050565b5f6020820190508181035f8301526116578161161e565b9050919050565b7f496e76616c6964206164647265737300000000000000000000000000000000005f82015250565b5f611692600f836111fc565b915061169d8261165e565b602082019050919050565b5f6020820190508181035f8301526116bf81611686565b9050919050565b7f556e6c6f636b2074696d652073686f756c6420626520696e20746865206675745f8201527f7572650000000000000000000000000000000000000000000000000000000000602082015250565b5f6117206023836111fc565b915061172b826116c6565b604082019050919050565b5f6020820190508181035f83015261174d81611714565b9050919050565b61175d81611325565b82525050565b5f819050919050565b5f819050919050565b5f61178f61178a61178584611763565b61176c565b611325565b9050919050565b61179f81611775565b82525050565b5f6040820190506117b85f830185611754565b6117c56020830184611796565b9392505050565b5f815190506117da8161132e565b92915050565b5f602082840312156117f5576117f461129c565b5b5f611802848285016117cc565b91505092915050565b5f60608201905061181e5f8301866114a0565b61182b60208301856113c9565b61183860408301846113c9565b949350505050565b7f4e487b71000000000000000000000000000000000000000000000000000000005f52601160045260245ffd5b5f61187782611325565b915061188283611325565b925082820190508082111561189a57611899611840565b5b9291505056fea26474726f6e582212204f8baf570718175263b2227b2d76cd69bc60c76f65d2d8736d495b648d7aebac64736f6c63430008170033",
  "deployedBytecode": "0x6080604052600436106100fd575f3560e01c8063893d20e811610094578063a0712d6811610063578063a0712d681461045f578063a9059cbb1461047b578063dd467064146104cf578063dd62ed3e146104eb578063e671c8441461053f576100fd565b8063893d20e8146103455780638da5cb5b1461038757806390b98a11146103c957806395d89b411461041d576100fd565b8063251c1aa3116100d0578063251c1aa31461022d578063313ce5671461026f57806351cff8d9146102b157806370a08231146102f1576100fd565b806306fdde0314610101578063095ea7b31461014357806318160ddd1461019757806323b872dd146101d9575b5f80fd5b34801561010c575f80fd5b50d38015610118575f80fd5b50d28015610124575f80fd5b5061012d610593565b60405161013a919061127c565b60405180910390f35b34801561014e575f80fd5b50d3801561015a575f80fd5b50d28015610166575f80fd5b50610181600480360381019061017c9190611358565b610623565b60405161018e91906113b0565b60405180910390f35b3480156101a2575f80fd5b50d380156101ae575f80fd5b50d280156101ba575f80fd5b506101c3610645565b6040516101d091906113d8565b60405180910390f35b3480156101e4575f80fd5b50d380156101f0575f80fd5b50d280156101fc575f80fd5b50610217600480360381019061021291906113f1565b61064e565b60405161022491906113b0565b60405180910390f35b348015610238575f80fd5b50d38015610244575f80fd5b50d28015610250575f80fd5b5061025961067c565b60405161026691906113d8565b60405180910390f35b34801561027a575f80fd5b50d38015610286575f80fd5b50d28015610292575f80fd5b5061029b610682565b6040516102a8919061145c565b60405180910390f35b3480156102bc575f80fd5b50d380156102c8575f80fd5b50d280156102d4575f80fd5b506102ef60048036038101906102ea9190611475565b61068a565b005b3480156102fc575f80fd5b50d38015610308575f80fd5b50d28015610314575f80fd5b5061032f600480360381019061032a9190611475565b610813565b60405161033c91906113d8565b60405180910390f35b348015610350575f80fd5b50d3801561035c575f80fd5b50d28015610368575f80fd5b50610371610858565b60405161037e91906114af565b60405180910390f35b348015610392575f80fd5b50d3801561039e575f80fd5b50d280156103aa575f80fd5b506103b3610880565b6040516103c091906114af565b60405180910390f35b3480156103d4575f80fd5b50d380156103e0575f80fd5b50d280156103ec575f80fd5b5061040760048036038101906104029190611358565b6108a5565b60405161041491906113b0565b60405180910390f35b348015610428575f80fd5b50d38015610434575f80fd5b50d28015610440575f80fd5b506104496108bb565b604051610456919061127c565b60405180910390f35b610479600480360381019061047491906114c8565b61094b565b005b348015610486575f80fd5b50d38015610492575f80fd5b50d2801561049e575f80fd5b506104b960048036038101906104b49190611358565b6109e7565b6040516104c691906113b0565b60405180910390f35b6104e960048036038101906104e491906114c8565b610a09565b005b3480156104f6575f80fd5b50d38015610502575f80fd5b50d2801561050e575f80fd5b50610529600480360381019061052491906114f3565b610ae4565b60405161053691906113d8565b60405180910390f35b34801561054a575f80fd5b50d38015610556575f80fd5b50d28015610562575f80fd5b5061057d60048036038101906105789190611475565b610b66565b60405161058a91906113d8565b60405180910390f35b6060600380546105a29061155e565b80601f01602080910402602001604051908101604052809291908181526020018280546105ce9061155e565b80156106195780601f106105f057610100808354040283529160200191610619565b820191905f5260205f20905b8154815290600101906020018083116105fc57829003601f168201915b5050505050905090565b5f8061062d610bef565b905061063a818585610bf6565b600191505092915050565b5f600254905090565b5f80610658610bef565b9050610665858285610c08565b610670858585610c9b565b60019150509392505050565b60065481565b5f6012905090565b6006544210156106cf576040517f08c379a00000000000000000000000000000000000000000000000000000000081526004016106c6906115d8565b60405180910390fd5b60055f9054906101000a900473ffffffffffffffffffffffffffffffffffffffff1673ffffffffffffffffffffffffffffffffffffffff163373ffffffffffffffffffffffffffffffffffffffff161461075e576040517f08c379a000000000000000000000000000000000000000000000000000000000815260040161075590611640565b60405180910390fd5b5f73ffffffffffffffffffffffffffffffffffffffff168173ffffffffffffffffffffffffffffffffffffffff16036107cc576040517f08c379a00000000000000000000000000000000000000000000000000000000081526004016107c3906116a8565b60405180910390fd5b8073ffffffffffffffffffffffffffffffffffffffff166108fc4790811502906040515f60405180830381858888f1935050505015801561080f573d5f803e3d5ffd5b5050565b5f805f8373ffffffffffffffffffffffffffffffffffffffff1673ffffffffffffffffffffffffffffffffffffffff1681526020019081526020015f20549050919050565b5f60055f9054906101000a900473ffffffffffffffffffffffffffffffffffffffff16905090565b60055f9054906101000a900473ffffffffffffffffffffffffffffffffffffffff1681565b5f6108b1338484610c9b565b6001905092915050565b6060600480546108ca9061155e565b80601f01602080910402602001604051908101604052809291908181526020018280546108f69061155e565b80156109415780601f1061091857610100808354040283529160200191610941565b820191905f5260205f20905b81548152906001019060200180831161092457829003601f168201915b5050505050905090565b60055f9054906101000a900473ffffffffffffffffffffffffffffffffffffffff1673ffffffffffffffffffffffffffffffffffffffff163373ffffffffffffffffffffffffffffffffffffffff16146109da576040517f08c379a00000000000000000000000000000000000000000000000000000000081526004016109d190611640565b60405180910390fd5b6109e43382610d8b565b50565b5f806109f1610bef565b90506109fe818585610c9b565b600191505092915050565b804210610a4b576040517f08c379a0000000000000000000000000000000000000000000000000000000008152600401610a4290611736565b60405180910390fd5b60055f9054906101000a900473ffffffffffffffffffffffffffffffffffffffff1673ffffffffffffffffffffffffffffffffffffffff163373ffffffffffffffffffffffffffffffffffffffff1614610ada576040517f08c379a0000000000000000000000000000000000000000000000000000000008152600401610ad190611640565b60405180910390fd5b8060068190555050565b5f60015f8473ffffffffffffffffffffffffffffffffffffffff1673ffffffffffffffffffffffffffffffffffffffff1681526020019081526020015f205f8373ffffffffffffffffffffffffffffffffffffffff1673ffffffffffffffffffffffffffffffffffffffff1681526020019081526020015f2054905092915050565b5f73__$d4ff24c38abb03571bada3bbf56707d27e$__6396e4ee3d610b8a84610813565b60026040518363ffffffff1660e01b8152600401610ba99291906117a5565b602060405180830381865af4158015610bc4573d5f803e3d5ffd5b505050506040513d601f19601f82011682018060405250810190610be891906117e0565b9050919050565b5f33905090565b610c038383836001610e0a565b505050565b5f610c138484610ae4565b90507fffffffffffffffffffffffffffffffffffffffffffffffffffffffffffffffff811015610c955781811015610c86578281836040517ffb8f41b2000000000000000000000000000000000000000000000000000000008152600401610c7d9392919061180b565b60405180910390fd5b610c9484848484035f610e0a565b5b50505050565b5f73ffffffffffffffffffffffffffffffffffffffff168373ffffffffffffffffffffffffffffffffffffffff1603610d0b575f6040517f96c6fd1e000000000000000000000000000000000000000000000000000000008152600401610d0291906114af565b60405180910390fd5b5f73ffffffffffffffffffffffffffffffffffffffff168273ffffffffffffffffffffffffffffffffffffffff1603610d7b575f6040517fec442f05000000000000000000000000000000000000000000000000000000008152600401610d7291906114af565b60405180910390fd5b610d86838383610fd9565b505050565b5f73ffffffffffffffffffffffffffffffffffffffff168273ffffffffffffffffffffffffffffffffffffffff1603610dfb575f6040517fec442f05000000000000000000000000000000000000000000000000000000008152600401610df291906114af565b60405180910390fd5b610e065f8383610fd9565b5050565b5f73ffffffffffffffffffffffffffffffffffffffff168473ffffffffffffffffffffffffffffffffffffffff1603610e7a575f6040517fe602df05000000000000000000000000000000000000000000000000000000008152600401610e7191906114af565b60405180910390fd5b5f73ffffffffffffffffffffffffffffffffffffffff168373ffffffffffffffffffffffffffffffffffffffff1603610eea575f6040517f94280d62000000000000000000000000000000000000000000000000000000008152600401610ee191906114af565b60405180910390fd5b8160015f8673ffffffffffffffffffffffffffffffffffffffff1673ffffffffffffffffffffffffffffffffffffffff1681526020019081526020015f205f8573ffffffffffffffffffffffffffffffffffffffff1673ffffffffffffffffffffffffffffffffffffffff1681526020019081526020015f20819055508015610fd3578273ffffffffffffffffffffffffffffffffffffffff168473ffffffffffffffffffffffffffffffffffffffff167f8c5be1e5ebec7d5bd14f71427d1e84f3dd0314c0f7b2291e5b200ac8c7c3b92584604051610fca91906113d8565b60405180910390a35b50505050565b5f73ffffffffffffffffffffffffffffffffffffffff168373ffffffffffffffffffffffffffffffffffffffff1603611029578060025f82825461101d919061186d565b925050819055506110f7565b5f805f8573ffffffffffffffffffffffffffffffffffffffff1673ffffffffffffffffffffffffffffffffffffffff1681526020019081526020015f20549050818110156110b2578381836040517fe450d38c0000000000000000000000000000000000000000000000000000000081526004016110a99392919061180b565b60405180910390fd5b8181035f808673ffffffffffffffffffffffffffffffffffffffff1673ffffffffffffffffffffffffffffffffffffffff1681526020019081526020015f2081905550505b5f73ffffffffffffffffffffffffffffffffffffffff168273ffffffffffffffffffffffffffffffffffffffff160361113e578060025f8282540392505081905550611188565b805f808473ffffffffffffffffffffffffffffffffffffffff1673ffffffffffffffffffffffffffffffffffffffff1681526020019081526020015f205f82825401925050819055505b8173ffffffffffffffffffffffffffffffffffffffff168373ffffffffffffffffffffffffffffffffffffffff167fddf252ad1be2c89b69c2b068fc378daa952ba7f163c4a11628f55a4df523b3ef836040516111e591906113d8565b60405180910390a3505050565b5f81519050919050565b5f82825260208201905092915050565b5f5b8381101561122957808201518184015260208101905061120e565b5f8484015250505050565b5f601f19601f8301169050919050565b5f61124e826111f2565b61125881856111fc565b935061126881856020860161120c565b61127181611234565b840191505092915050565b5f6020820190508181035f8301526112948184611244565b905092915050565b5f80fd5b5f74ffffffffffffffffffffffffffffffffffffffffff82169050919050565b6112c9816112a0565b81146112d3575f80fd5b50565b5f73ffffffffffffffffffffffffffffffffffffffff82169050919050565b5f6112ff826112d6565b9050919050565b5f81359050611314816112c0565b61131d816112f5565b905092915050565b5f819050919050565b61133781611325565b8114611341575f80fd5b50565b5f813590506113528161132e565b92915050565b5f806040838503121561136e5761136d61129c565b5b5f61137b85828601611306565b925050602061138c85828601611344565b9150509250929050565b5f8115159050919050565b6113aa81611396565b82525050565b5f6020820190506113c35f8301846113a1565b92915050565b6113d281611325565b82525050565b5f6020820190506113eb5f8301846113c9565b92915050565b5f805f606084860312156114085761140761129c565b5b5f61141586828701611306565b935050602061142686828701611306565b925050604061143786828701611344565b9150509250925092565b5f60ff82169050919050565b61145681611441565b82525050565b5f60208201905061146f5f83018461144d565b92915050565b5f6020828403121561148a5761148961129c565b5b5f61149784828501611306565b91505092915050565b6114a9816112f5565b82525050565b5f6020820190506114c25f8301846114a0565b92915050565b5f602082840312156114dd576114dc61129c565b5b5f6114ea84828501611344565b91505092915050565b5f80604083850312156115095761150861129c565b5b5f61151685828601611306565b925050602061152785828601611306565b9150509250929050565b7f4e487b71000000000000000000000000000000000000000000000000000000005f52602260045260245ffd5b5f600282049050600182168061157557607f821691505b60208210810361158857611587611531565b5b50919050565b7f596f752063616e277420776974686472617720796574000000000000000000005f82015250565b5f6115c26016836111fc565b91506115cd8261158e565b602082019050919050565b5f6020820190508181035f8301526115ef816115b6565b9050919050565b7f596f75206172656e277420746865206f776e65720000000000000000000000005f82015250565b5f61162a6014836111fc565b9150611635826115f6565b602082019050919050565b5f6020820190508181035f8301526116578161161e565b9050919050565b7f496e76616c6964206164647265737300000000000000000000000000000000005f82015250565b5f611692600f836111fc565b915061169d8261165e565b602082019050919050565b5f6020820190508181035f8301526116bf81611686565b9050919050565b7f556e6c6f636b2074696d652073686f756c6420626520696e20746865206675745f8201527f7572650000000000000000000000000000000000000000000000000000000000602082015250565b5f6117206023836111fc565b915061172b826116c6565b604082019050919050565b5f6020820190508181035f83015261174d81611714565b9050919050565b61175d81611325565b82525050565b5f819050919050565b5f819050919050565b5f61178f61178a61178584611763565b61176c565b611325565b9050919050565b61179f81611775565b82525050565b5f6040820190506117b85f830185611754565b6117c56020830184611796565b9392505050565b5f815190506117da8161132e565b92915050565b5f602082840312156117f5576117f461129c565b5b5f611802848285016117cc565b91505092915050565b5f60608201905061181e5f8301866114a0565b61182b60208301856113c9565b61183860408301846113c9565b949350505050565b7f4e487b71000000000000000000000000000000000000000000000000000000005f52601160045260245ffd5b5f61187782611325565b915061188283611325565b925082820190508082111561189a57611899611840565b5b9291505056fea26474726f6e582212204f8baf570718175263b2227b2d76cd69bc60c76f65d2d8736d495b648d7aebac64736f6c63430008170033",
  "source": "// SPDX-License-Identifier: MIT\npragma solidity ^0.8.20;\n\nimport {ERC20} from \"@openzeppelin/contracts/token/ERC20/ERC20.sol\";\nimport \"./ConvertLib.sol\";\n\n// To use console.log, you need TronBox Runtime Environment\n// (https://hub.docker.com/r/tronbox/tre) as your private network.\n// Uncomment this line to use console.log\n// import \"tronbox/console.sol\";\n\n/**\n * @title MetaCoin - Example Token Contract\n * @dev Implements a MetaCoin token contract with example methods.\n */\ncontract MetaCoin is ERC20 {\n    // Address of the contract deployer\n    address public owner;\n\n    // Unlock time for TRX locking feature\n    uint256 public unlockTime;\n\n    /**\n     * @param _initialSupply The initial supply.\n     */\n    constructor(uint256 _initialSupply) ERC20(\"Tether USD\", \"USDT\") {\n        owner = msg.sender;\n        _mint(msg.sender, _initialSupply);\n    }\n\n    /**\n     * @dev Transfers tokens to a specified address.\n     * @param _receiver The address to receive the tokens.\n     * @param _amount The amount of tokens to send.\n     * @return success Whether the transfer was successful. Returns false if the balance is insufficient.\n     */\n    function sendCoin(\n        address _receiver,\n        uint256 _amount\n    ) public returns (bool success) {\n        _transfer(msg.sender, _receiver, _amount);\n\n        // Uncomment the following line and the import of \"tronbox/console.sol\" to print logs in the terminal.\n        // console.log(\"Transferring from %s to %s %s tokens\", msg.sender, _receiver, _amount);\n\n        return true;\n    }\n\n    /**\n     * @dev Locks a certain amount of TRX until a specified unlock time.\n     * @param _unlockTime The future unlock time.\n     */\n    function lock(uint256 _unlockTime) public payable {\n        require(\n            block.timestamp < _unlockTime,\n            \"Unlock time should be in the future\"\n        );\n        require(msg.sender == owner, \"You aren't the owner\");\n\n        unlockTime = _unlockTime;\n    }\n\n    /**\n     * @dev Withdraws locked TRX to a specified address after the unlock time has passed.\n     * @param _to The address to send the TRX to.\n     */\n    function withdraw(address _to) public {\n        require(block.timestamp >= unlockTime, \"You can't withdraw yet\");\n        require(msg.sender == owner, \"You aren't the owner\");\n        require(_to != address(0), \"Invalid address\");\n\n        payable(_to).transfer(address(this).balance);\n    }\n\n    /**\n     * @dev Gets the token balance of the specified address and converts it to another unit.\n     * @param _account The address to query the balance for.\n     * @return convertedBalance The converted balance.\n     */\n    function getConvertedBalance(\n        address _account\n    ) public view returns (uint256 convertedBalance) {\n        return ConvertLib.convert(balanceOf(_account), 2);\n    }\n\n    /**\n     * @dev Gets the address of the contract owner.\n     * @return ownerAddress The address of the contract owner.\n     */\n    function getOwner() public view returns (address ownerAddress) {\n        return owner;\n    }\n\n    function mint(uint256 _initialSupply) public payable {\n        require(msg.sender == owner, \"You aren't the owner\");\n        _mint(msg.sender, _initialSupply);\n    }\n}\n",
  "sourcePath": "/mnt/c/Users/jin/workspace/sm/l7/metacoin/contracts/MetaCoin.sol",
  "compiler": {
    "name": "solc",
    "version": "0.8.23+commit.8ed33446.Emscripten.clang"
  },
  "schemaVersion": "2.0.1",
  "updatedAt": "2025-09-12T20:16:55.797Z"
}